:1000000045C0000053C0000051C000004FC00000B8
:100010004DC00000A4C0000049C0000047C000005F
:1000200045C0000043C0000041C000003FC00000C8
:100030003DC000003BC0000039C0000037C00000D8
:1000400035C0000033C0000031C000002FC00000E8
:100050002DC000002BC0000029C0000027C00000F8
:1000600025C0000023C0000021C000001FC0000008
:100070001DC000001BC0000019C0000017C0000018
:1000800015C0000013C0000011C0000011241FBEE5
:10009000CFEFD0E4DEBFCDBF21E0A0E0B1E001C0F2
:1000A0001D92A830B207E1F7A1D0A6C0A9CF8091D8
:1000B000000190910101019690930101809300014C
:1000C00008958091000190910101019790930101A1
:1000D0008093000108958DE2809307018EE1809363
:1000E000020181E090E005C0FC01ED5FFE4F10824F
:1000F000019684309105C4F387B18F6087B9E8E633
:10010000F0E0808182608083ECE6F0E080818160B5
:10011000808378940895CF9320E030E0C0E010C051
:10012000F901ED5FFE4F8081A901440F551F90E05A
:1001300002C0959587954A95E2F7C82B2F5F3F4FF0
:10014000243031056CF380910201C81301C0B9DF7E
:1001500080910701C81301C0AADFCF9108951F92B3
:100160000F920FB60F9211240BB60F922F933F935D
:100170004F935F936F937F938F939F93AF93BF93AF
:10018000CF93EF93FF93C6B1C295C695C695C37042
:1001900009F4C1DF80E090E00CC09C012F5F3F4F6D
:1001A000F901ED5FFE4F4081FC01ED5FFE4F4083A2
:1001B000C901833091058CF3C295CC0FCC0FC07C64
:1001C000C0930601FF91EF91CF91BF91AF919F91A5
:1001D0008F917F916F915F914F913F912F910F90F0
:1001E0000BBE0F900FBE0F901F901895109201013B
:0C01F0001092000170DFFFCFF894FFCFE9
:00000001FF
